:020000040800F2
:1080000048040020C1810008C9810008CB81000814
:10801000CD810008CF810008D18100080000000058
:10802000000000000000000000000000798C000843
:10803000D581000800000000778C00087B8C0008C8
:10804000DB810008DB810008DB810008DB810008A0
:10805000DB810008DB810008DB810008DB81000890
:10806000DB810008DB810008DB810008DB81000880
:10807000DB810008DB810008DB810008DB81000870
:10808000DB810008DB810008DB810008DB81000860
:10809000DB810008DB810008DB810008DB81000850
:1080A000DB810008DB810008DB810008DB81000840
:1080B000DB810008DB810008DB810008DB81000830
:1080C000DB810008DB810008DB810008DB81000820
:1080D000DB810008DB810008DB810008DB81000810
:1080E000DB810008DB810008DB810008DB81000800
:1080F000DB810008DB810008DB810008DB810008F0
:10810000DB810008DB810008DB810008DB810008DF
:10811000DB810008DB810008DB810008DB810008CF
:10812000DB810008DB810008DB810008DB810008BF
:10813000DB810008DB810008DB810008DB810008AF
:10814000DB810008DB810008DB810008DB8100089F
:10815000DB810008DB810008DB810008DB8100088F
:10816000DB810008DB810008DB810008DB8100087F
:10817000DB810008DB810008DB81000800000000D3
:10818000DB810008DB810008DB810008DB8100085F
:10819000DB810008DB810008DB810008DB8100084F
:1081A000DB810008DB810008DB810008DFF80CD0F0
:1081B00000F068F800480047B59000084804002027
:1081C0000648804706480047FEE7FEE7FEE7FEE771
:1081D000FEE7FEE7FEE7FEE7FEE7FEE72D8D00087F
:1081E000AD8100082DE9F05F0546002092469B46D0
:1081F00088460646814640241BE0284641464746BD
:10820000224600F02FF853465A46C01A914110D327
:1082100011461846224600F016F82D1A67EB0108A1
:108220004F4622460120002100F00DF817EB00090F
:108230004E41201EA4F10104DFDC484631462A46A7
:108240004346BDE8F09F202A04DB203A00FA02F101
:10825000002070479140C2F1200320FA03F3194334
:1082600090407047202A04DB203A21FA02F00021D6
:10827000704721FA02F3D040C2F120029140084336
:1082800019467047064C074D06E0E06840F00103D0
:1082900094E8070098471034AC42F6D3FFF78AFF02
:1082A00094910008B491000831B500F0FBF8009CEF
:1082B0000546601C00D0641C00F0F4F8401BA0428E
:1082C000FAD338BD2DE9F84FDFF890B100224FF016
:1082D00001084FF0030A4FF00F090BF1040E00BF25
:1082E0000B6808FA02F42340A3426ED14D68022DB8
:1082F00001D0122D0ED1D50800EB850CDCF82050F2
:108300005607F70E09FA07F6B5430E69BE402E432D
:10831000CCF82060066855000F790AFA05FC07F0D2
:10832000030726EA0C06AF40374307604E68012E6C
:1083300005D0022E03D0112E01D0122E0ED1876847
:10834000CE6827EA0C07AE403E4386604668A643E7
:108350000C79C4F30014944034434460C4688E68BC
:1083600024EA0C04AE402643C6604C68E4006FD596
:108370003B4C256845F480452560246822F00305C0
:1083800004F480440094374C2E19D6F80848950719
:108390002F0F09FA07F5AC43334DA84201D1002550
:1083A0002EE0324DA84201D1012529E0304DA842EE
:1083B00001D1022524E02F4DA84201D103251FE061
:1083C0002D4DA84202D104251AE041E02B4DA842D0
:1083D00001D1052514E02A4DA84201D106250FE060
:1083E000284DA84201D107250AE0274DA84201D116
:1083F000082505E0254DA84201D1092500E00A2500
:10840000BD402543C6F80858DBF800405D464E687D
:108410009C43F60300D51C432C60DEF800407546F3
:108420004E689C43B60300D51C432C600B4D0835A9
:108430002C684E689C43F60200D51C432C60074D07
:108440000C352C684E689C43B60200D51C432C604A
:10845000521C102AFFF444AFBDE8F88F003C0140E5
:108460004438024000300140000002400004024055
:1084700000080240000C02400010024000140240BC
:1084800000180240001C024000200240002402406C
:1084900042694A40426170470AB1816170470904EC
:1084A000FBE700000148006870470000040000205E
:1084B00002480168491C0160704700000400002068
:1084C0000B4810B5016841F400710160016841F486
:1084D00080610160016841F480710160032000F057
:1084E00069F8002000F006F800F018F8002010BD30
:1084F000003C024010B5044607484FF47A7100680A
:10850000B0FBF1F000F0DBFA00222146501E00F033
:1085100031F8002010BD00000000002010B5072039
:1085200000F048F8002211466FF00B0000F022F82E
:10853000002211466FF00A0000F01CF800221146DC
:108540006FF0090000F016F800221146501F00F0ED
:1085500011F800221146101F00F00CF800221146FD
:10856000901E00F007F80022BDE810401146501E92
:10857000AFF30080F0B40E4B1B680C46C3F302232C
:10858000C3F10705042D00D90425191D072901D2BF
:10859000002300E0DB1E012606FA05F1491E2140FA
:1085A00099409E40761E16403143F0BC00F053BB0C
:1085B0000CED00E0064900F0070208684FF6FF03E3
:1085C000184040EA0220034A104308607047000048
:1085D0000CED00E00000FA052DE9F0470E4605001D
:1085E00065D0DFF81481D8F80000F7B200F00F0072
:1085F000B04207D288F80070D8F8000000F00F00F1
:10860000B04254D128683D4C810712D5400703D5AC
:10861000206840F4E05020602878000703D52068E7
:1086200040F4604020602068A96820F0F000084312
:1086300020602878C0072DD03049686808390128A3
:1086400012D0022813D0032811D009688907002905
:108650002DDA216821F0030101432160FFF722FF99
:10866000814641F2883A0EE009688903EFE709681C
:108670008901ECE7FFF716FFA0EB0901514502D98C
:108680000320BDE8F0872068696800F00C00B0EBBB
:10869000810FEFD1D8F80010404601F00F01B14230
:1086A00007D90770006800F00F00B04201D0012028
:1086B000E7E72878400705D52068E96820F4E0500E
:1086C000084320602878000706D52068296920F42F
:1086D000604040EAC100206000F03CF82168084A90
:1086E000C1F30311515CC840064908600020FFF740
:1086F00001FF0020C5E70000003C024008380240AE
:108700007C910008000000200148006870470000CC
:10871000000000200448054900680968044AC1F3C4
:108720008221515CC8407047000000200838024098
:108730008C9100080448054900680968044AC1F39F
:108740004231515CC84070470000002008380240A8
:108750008C910008154810B5006810F00C02144800
:1087600013D04110042A0FD0082A0ED10F4C241F19
:108770002268236802F03F025B0207D52068C0F33D
:108780008810A0FB010106E0084610BD2168C1F376
:108790008811A1FB00010023FFF724FD2168C1F32C
:1087A0000141491C4900B0FBF1F010BD08380240FE
:1087B0000024F4002DE9F84F050071D0DFF8D092C5
:1087C0002878A9F1040BC007ABF104044AD0D9F80A
:1087D00000104846C1F38101012908D00068C0F3A8
:1087E000810002280AD1DBF80000400206D520688B
:1087F000800337D568680028DFD033E06868B0F5BB
:10880000803F10D0B0F5A02F206810D020F4803029
:108810002060206820F4802020606868A8B1FFF7FD
:1088200041FE06460DE0206840F48030F4E740F455
:1088300080202060F7E700BFFFF734FE801B64282C
:1088400073D820688003F7D50CE0FFF72BFE0646AF
:1088500005E000BFFFF726FE801B6428F0D82068E3
:108860008003F7D428788B4F80074FF0010A4FF030
:1088700000083DD5D9F80010484611F00C0F08D07B
:108880000068C0F3810002280BD1DBF80000400231
:1088900007D42068800715D5E868012800D111E0C9
:1088A000F3E0E868B0B1C7F800A0FFF7FBFD0646AB
:1088B00005E000BFFFF7F6FD801B022835D82068D1
:1088C0008007F7D52068296920F0F80040EAC10048
:1088D00020600DE0C7F80080FFF7E4FD064604E0E5
:1088E000FFF7E0FD801B02281FD820688007F7D41F
:1088F0002878000724D56848696981B1C0F800A0CC
:10890000FFF7D0FD064604E0FFF7CCFD801B0228F0
:108910000BD85F486C3000688007F5D510E0C0F8D0
:108920000080FFF7BFFD064605E074E0FFF7BAFDE3
:10893000801B02286FD856486C3000688007F5D439
:108940002878400753D552483830016841F08051AB
:108950000160006800F0805000905048016841F4C8
:1089600080710160FFF79EFD064604E0FFF79AFD67
:10897000801B02284FD849480068C005F6D5444EF0
:10898000A868683601280FD00528306810D020F07C
:1089900001003060306820F004003060A868B8B191
:1089A000FFF780FD00900FE0306840F00100F4E731
:1089B00040F004003060F7E7FFF774FD0099411ABA
:1089C00041F28830814258D830688007F4D50EE0F3
:1089D000FFF768FD009007E0FFF764FD0099411A7A
:1089E00041F28830814248D830688007F4D4A869C1
:1089F00090B3D9F80010C1F38101022945D00228B3
:108A0000C7F8608003D0FFF74DFD054638E0FFF75B
:108A100049FD064605E030E0FFF744FD801B0228D3
:108A20002BD820688001F7D4D5E907010843A96A4B
:108A30001B4A490802EB01416A6A41EA8211084374
:108A400095F82C1040EA0161CBF80010C7F860A03F
:108A5000FFF728FD054606E015E000BFFFF722FD01
:108A6000401B022809D820688001F7D50BE000BF21
:108A7000FFF718FD401B022802D90320BDE8F88F3C
:108A800020688001F4D40020F8E70120F6E7000018
:108A90000838024000004742800E47420070004004
:108AA0000000FFFF4FF0E0210428086903D020F008
:108AB00004000861704740F00400FAE7704710B501
:108AC000401EB0F1807F01D3012010BD4FF0E024A3
:108AD00060610F21601700F0BEF80020A061072040
:108AE0002061002010BD10B5FFF7E8FF10BD70B584
:108AF000040004D094F83900002510B106E00120EC
:108B000070BD84F83850204600F022F8242084F804
:108B100039002068C16821F40051C160204600F08E
:108B200031F92068016921F49041016120684169AF
:108B300021F02A0141612068C16841F40051C160FF
:108B4000E563202084F8390084F83A00002070BDE5
:108B500000B500680E4987B0884217D10D480168FA
:108B600041F0100101600068694600F010000590B6
:108B70004FF4C06000900220019001200290032079
:108B80000390072004900448FFF79CFB07B000BD4A
:108B90000010014044380240000002402DE9F84333
:108BA000044690F839001F4616460D46202850D13D
:108BB000A5B19EB194F8380001284AD0012084F86C
:108BC00038004FF00008C4F83C80212084F83900B8
:108BD000FFF768FCA6848146E68426E00120BDE814
:108BE000F883E08C401EE084A0684B46B0F5805FBF
:108BF0004FF000024FF080012046009703D000F0B4
:108C000017FAE8B90DE000F013FAC8B9288821680E
:108C1000C0F308004860206908B16D1C05E0AD1C78
:108C200003E0216815F8010B4860E08C0028D8D1DA
:108C30004B46002240212046009700F0F9F908B188
:108C40000320CCE7202084F8390084F83880002005
:108C5000C5E70220C3E70907090E002806DA00F07D
:108C60000F0000F1E02080F8141D704700F1E020B3
:108C700080F8001470477047704710B5FFF718FC74
:108C8000BDE81040FFF72FBF30B5264893B0002451
:108C9000016841F080510160006800F0805011903F
:108CA0002148016821F4404141F48041016000689D
:108CB000022500F440401190012003901020049000
:108CC000009506950820CDE9074032200990042040
:108CD0000A9007200B906846FFF76CFD00B1FEE795
:108CE0000F20CDE90C054FF4C050CDE90E404FF4F4
:108CF000A050109000210CA8FFF76EFC00B1FEE719
:108D0000FFF702FD4FF47A71B0FBF1F0FFF7D7FEE9
:108D10000420FFF7C7FE00221146501EFFF72AFC71
:108D200013B030BD40380240007000401048016868
:108D300041F4700101600F48016841F001010160D8
:108D40000C4A00210832116002680B4B1A40026085
:108D5000031D0A4A1A60026822F480220260054854
:108D60000C300160024906488039086070470000F5
:108D700088ED00E000380240FFFFF6FE10300024CE
:108D8000008000082DE9F04104460068016921F4E3
:108D90004052E168114301612168C86849F20C62E0
:108DA00090432369A268E5691A4363692B431A4318
:108DB0000243CA602168486920F44072A0691043E8
:108DC0004861E1696425B1F5004F9748974A2168E9
:108DD0004FF032083FD0914201D081427CD1FFF761
:108DE000A9FC00EBC00101EB001061688900B0FB39
:108DF000F1F6FFF79FFC00EBC00101EB001061688A
:108E00008900B0FBF1F0B0FBF5F06FF018014843BA
:108E100006EB800108EB0110B0FBF5F000F0F00666
:108E2000FFF788FC00EBC00101EB001061688900CE
:108E3000B0FBF1F0B0FBF5F006EB0016FFF77AFCA3
:108E400000EBC00101EB001061688900B0FBF1F795
:108E5000FFF770FCD2E0914201D081423DD1FFF793
:108E600069FC00EBC00101EB001061684900B0FB38
:108E7000F1F0B0FBF5F00601FFF75CFC00EBC00180
:108E800001EB001061684900B0FBF1F7FFF752FCFD
:108E900000EBC00101EB001061684900B0FBF1F08C
:108EA000B0FBF5F06FF01801484307EB800108EBC9
:108EB000C100B0FBF5F000F0F80006EB4006FFF74C
:108EC00039FC00EBC00101EB001061684900B0FB08
:108ED000F1F7FFF72FFC3CE055E0FFF71BFC00EB40
:108EE000C00101EB001061684900B0FBF1F0B0FB7C
:108EF000F5F00601FFF70EFC00EBC00101EB0010DE
:108F000061684900B0FBF1F7FFF704FC00EBC0011A
:108F100001EB001061684900B0FBF1F0B0FBF5F027
:108F20006FF01801484307EB800108EBC100B0FB6C
:108F3000F5F000F0F80006EB4006FFF7EBFB00EB66
:108F4000C00101EB001061684900B0FBF1F7FFF7C9
:108F5000E1FB00EBC00101EB001061684900B0FBD0
:108F6000F1F0B0FBF5F06FF01801484307EB80011A
:108F700008EBC100B0FBF5F000F0070021683044B9
:108F80008860BDE8F081FFF7C5FB00EBC00101EB95
:108F9000001061688900B0FBF1F6FFF7BBFB00EB46
:108FA000C00101EB001061688900B0FBF1F0B0FB7B
:108FB000F5F06FF01801484306EB800108EB011053
:108FC000B0FBF5F000F0F006FFF7A4FB00EBC001EA
:108FD00001EB001061688900B0FBF1F0B0FBF5F027
:108FE00006EB0016FFF796FB00EBC00101EB00104B
:108FF00061688900B0FBF1F7FFF78CFB00EBC00163
:1090000001EB001061688900B0FBF1F0B0FBF5F0F6
:109010006FF01801484307EB800108EB0110B0FB2B
:10902000F5F000F00F00A9E7001401400010014026
:109030002DE9F041984617460E460446069D1DE070
:10904000681C1BD02DB1FFF72DFAA0EB0800A84239
:1090500014D92068C16821F4D071C16020684169C9
:1090600021F001014161202084F8390084F83A00A0
:10907000002084F838000320BDE8F08120680068F3
:1090800036EA000004D00020B842D9D00020F3E72F
:109090000120F9E702E008C8121F08C1002AFAD12E
:1090A00070477047002001E001C1121F002AFBD168
:1090B0007047000086B0FFF703FAFFF7E5FD26488A
:1090C0000024016841F001010160016801F0010123
:1090D0000591016841F04001016000681F4D00F0FA
:1090E00040004FF4C0460590224631462846FFF71F
:1090F000D3F901200096CDE901046946284603947E
:10910000FFF7E0F81749164808604FF4E130C1E96D
:1091100001040C20CC60C1E904408C610846CC619C
:10912000FFF7E5FC00B1FEE7282313220EA10D484E
:10913000FFF734FD4FF400564FF4C8747700204613
:10914000FFF7B2F831462846FFF7A2F9394628461C
:10915000FFF79EF9F3E700003038024000180240A4
:1091600000100140080000204669726D7761726549
:109170002055706772616465640D0A00000000008C
:1091800000000000010203040607080900000000B7
:1091900001020304B4910008000000200800000050
:1091A00094900008BC9100080800002040040000D2
:0C91B000A49000080024F400000000005F
:04000005080081ADC1
:00000001FF
