:020000040800F2
:1000000000660020C1010008C9010008CB010008FA
:10001000CD010008CF010008D10100080000000058
:10002000000000000000000000000000B32B0008EA
:10003000D50100080000000041230008B52B00088E
:10004000DB010008DB010008DB010008DB01000820
:10005000DB010008DB010008DB010008DB01000810
:10006000DB010008DB010008DB010008DB01000800
:10007000DB010008DB010008DB010008DB010008F0
:10008000DB010008DB010008DB010008DB010008E0
:10009000DB010008DB010008DB010008DB010008D0
:1000A000DB010008DB010008DB010008DB010008C0
:1000B000DB010008DB010008DB010008DB010008B0
:1000C000DB010008DB010008DB010008DB010008A0
:1000D000DB010008DB010008DB010008DB01000890
:1000E000DB010008DB010008DB010008DB01000880
:1000F000DB010008DB010008DB010008DB01000870
:10010000DB010008DB010008DB010008DB0100085F
:10011000DB010008DB010008DB010008DB0100084F
:10012000DB010008DB010008DB010008DB0100083F
:10013000DB010008DB010008DB010008DB0100082F
:10014000DB010008DB010008DB010008DB0100081F
:10015000DB010008DB010008DB010008DB0100080F
:10016000DB010008DB010008DB010008DB010008FF
:10017000DB010008DB010008DB01000800000000D3
:10018000DB010008DB010008DB010008DB010008DF
:10019000DB010008DB010008DB010008DB010008CF
:1001A000DB010008DB010008DB010008DFF80CD0F0
:1001B00000F082F800480047613E00080066002019
:1001C0000648804706480047FEE7FEE7FEE7FEE7F1
:1001D000FEE7FEE7FEE7FEE7FEE7FEE7692C000824
:1001E000AD0100082DE9F05F0546002092469B46D0
:1001F00088460646814640241BE02846414647463D
:10020000224600F048F853465A46C01A914110D38E
:1002100011461846224600F02FF82D1A67EB010808
:100220004F4622460120002100F026F817EB000976
:100230004E41201EA4F10104DFDC484631462A4627
:100240004346BDE8F09FD2B201E000F8012B491E01
:10025000FBD270470022F6E710B513460A46044663
:100260001946FFF7F0FF204610BD421C10F8011B95
:100270000029FBD1801A7047202A04DB203A00FABB
:1002800002F1002070479140C2F1200320FA03F3ED
:10029000194390407047202A04DB203A21FA02F0EB
:1002A0000021704721FA02F3D040C2F120029140B0
:1002B0000843194670470000064C074D06E0E06809
:1002C00040F0010394E8070098471034AC42F6D39D
:1002D000FFF770FF90420008B04200080146014855
:1002E00001F0FDB97800002010B5044801F009FACA
:1002F000042801D0012010BD002010BD780000208E
:1003000082B001208DF800009DF80000012802D085
:10031000012002B07047024802B001F008BA0000A4
:100320007800002038B50024009313460A460146A1
:10033000034801F06DFA00B10124204638BD0000E9
:100340007800002038B50024009313460A46014681
:10035000034801F037FB00B10124204638BD0000FE
:100360007800002000B587B018216846FFF772FFBB
:1003700069460B4803F0DDFA10B1022007B000BD5A
:100380000098B0F5C03F08D2064800F0C1F808B1A7
:100390000320F3E700F008F8F0E70020EEE70000A4
:1003A00056420008008000082DE9FC410020009022
:1003B000174F019001251548164E6C0338602146F1
:1003C000304600F05EFD6B4622461349134803F0A9
:1003D00007FA10B10220BDE8FC8100982146019087
:1003E000884200D20025304600F04BFD009A0A49B1
:1003F000386800F0C5F808B10420ECE738680199C6
:10040000012D08443860DAD00020E4E700800008BD
:10041000240000200018024000060020D003002025
:10042000002200F001B8000030B50E4B0546012057
:100430005C7A002C14D1587A1C54587A03EB800053
:1004400045605D7A03F108002A54587A421C5A72BA
:10045000303008703A2048702F208870CC7000200F
:1004600030BD00002C000020002229B101291DD040
:1004700002291ED04FF440720B2800D9001D0E49EE
:100480000B6823F440730B600B6813430B600A681E
:1004900022F0F8020A600A68022303EBC00002435C
:1004A0000A60086840F48030086070474FF480723A
:1004B000E2E74FF40072DFE7103C024013480168A6
:1004C00089050FD5016821F400710160016841F4CC
:1004D00000610160016821F400610160016841F47C
:1004E00000710160016849050FD5016821F4806140
:1004F0000160016841F480510160016821F480517C
:100500000160016841F4806101607047003C024075
:1005100000B587B000F02AF8094800F0B3F902905E
:100520000A200390002102200091049005A968464A
:1005300000F074FA002800D0012007B000BD0000D0
:100540000080000810B588B040F6FF7400F098FBFA
:10055000684600F0B1FA00F02BFB0298844302D009
:10056000022008B010BD0020FBE7000010B500F02D
:1005700087FB0249F320086010BD00000C3C0240DC
:100580002DE9F04116468846054600240D4F13E03C
:1005900058F8242000232946022000F033FB10B134
:1005A0000320BDE8F08158F824002968814201D079
:1005B0000220F6E7641C2D1DB44201D2BD42E7D9EA
:1005C0000020EEE7FBFF1F0830B58FB0044640F671
:1005D000FF7507A800F070FA0120CDE90004AA20F9
:1005E0000490099C9DF834008DF818002C4300F00D
:1005F00047FB00F0F3FA6846029400F07DFA0FB072
:1006000030BD00000E4A136823F4407313600329C1
:100610000DD0012911680FD041F40041116011681B
:100620004FF4803343EA00200143116070471168A2
:1006300048F204031943F1E741F00401EEE700003A
:10064000103C02402DE9F04104464CF250380F4670
:10065000404600F0EFF8002811D11549134A0D1D4E
:10066000C4F30F36944204D1012F0AD0032F08D0CF
:100670000BE0B4F5805F08D20A8822430A80BDE807
:10068000F0810A8832430A8004E0298831432980B6
:100690009442F4D1032FF2D1404600F0CBF8002869
:1006A000EDD1298831432980E9E7000000F0FF00FF
:1006B000163C02402DE9F04104464CF250370E46FC
:1006C000384600F0B7F8010026D11648144A051D37
:1006D000944204D1012E09D0032E07D00BE0B4F5CB
:1006E000805F08D20288A243028015E0028822EAD5
:1006F0001432028005E0288820EA143028809442D1
:100700000AD1032E08D1384600F094F8010003D135
:10071000288820EA143028800846BDE8F0810000CF
:1007200000F0FF00163C0240064A136823F44073B1
:10073000136013681360136843F0010313600170C2
:1007400070470000103C0240084910B50C6824F4C2
:1007500040740C600C6844F440740C600C6844F005
:1007600001040C600260436010BD0000103C0240B8
:10077000074A136823F440731360136843F48073CB
:100780001360136843F00103136001807047000099
:10079000103C0240074A136823F440731360136847
:1007A00043F400731360136843F0010313600160A6
:1007B00070470000103C02401C490868C2061C48F3
:1007C00005D5C26942F01002C26110220A600A68AF
:1007D000920605D5C26942F00802C26120220A6071
:1007E0000A68520605D5C26942F00402C26140227D
:1007F0000A600A68120605D5C26942F00202C261A7
:1008000080220A600A68D20506D5C26942F0010258
:10081000C2614FF480720A600A68920705D5C26906
:1008200042F02002C2610220086070470C3C024086
:100830005800002070B5114904460020C86100F03E
:1008400029FB06460E4D09E0601C07D024B100F0DC
:1008500021FB801BA04201D9032070BD2868C00382
:10086000F2D42868C00701D001202860286810F45D
:10087000F970F2D0FFF7A0FF012070BD58000020F2
:100880000C3C024010B50021A0F100634FF48042FF
:10089000934204D345490144914201D2012182E0AF
:1008A00043490144914201D202217CE04149014483
:1008B000914201D2032176E03F494FF48033014455
:1008C000994201D204216EE03C4944184FF40031B2
:1008D0008C4201D2052166E0394C04448C4201D29D
:1008E000062160E0374C04448C4201D207215AE0D3
:1008F000354C04448C4201D2082154E0334C04446A
:100900008C4201D209214EE0314C04448C4201D288
:100910000A2148E02F4C04448C4201D20B2142E0D2
:10092000A0F10164944201D20C213CE02A4C044421
:10093000944201D20D2136E0284C0444944201D265
:100940000E2130E0264C0444944201D20F212AE0CB
:10095000244A02449A4201D2102124E0224A02444D
:100960008A4201D211211EE0204A02448A4201D269
:10097000122118E01E4A02448A4201D2132112E0D9
:100980001C4A02448A4201D214210CE01A4A024451
:100990008A4201D2152106E0184A1044884201D249
:1009A000162100E01721084610BD000000C0FFF727
:1009B0000080FFF70040FFF70000FFF70000FEF7A0
:1009C0000000FCF70000FAF70000F8F70000F6F767
:1009D0000000F4F70000F2F700C0EFF70080EFF737
:1009E0000040EFF70000EFF70000EEF70000ECF733
:1009F0000000EAF70000E8F70000E6F70000E4F77F
:100A000031B500F047FA009C0546601C00D0641C1C
:100A100000F040FA401BA042FAD338BD2DE9F04760
:100A2000044623480F46017E01290AD00121804651
:100A300001764CF250394846FFF7FCFE020003D025
:100A400030E00220BDE8F0874FF0FF3038602068CA
:100A5000184D012801D0A6681DE0207C6168FFF7D1
:100A6000D1FD4846FFF7E6FE0246286848F2040139
:100A70008843286014E0217C3046FFF7F5FC4846A7
:100A8000FFF7D8FE0200286820F0FA00286001D0A5
:100A90003E6005E0761CD4E902100844B042EAD872
:100AA000FFF70CFD002188F818101046CAE7000077
:100AB00058000020103C02400F2101600D490988B8
:100AC00081600C4AAA21521E1378CC2B03D01278D5
:100AD000552A02D002E0CC2100E0552101610549F0
:100AE000891E0A6802F0E0020276097801F00C0122
:100AF00041617047163C02402DE9F0472949044600
:100B000001200A7E012A17D0012289460A7621781F
:100B1000C90706D060680128D4E902010FD0FFF7A9
:100B200091FD21784CF2503A89070DD5257C50462D
:100B3000FFF780FE30B107E00220BDE8F087FFF745
:100B4000B9FDEEE718490D702178DFF8608049079C
:100B500013D5207E00F0200700F0400500F080064D
:100B60005046FFF767FE40B998F8002002F01F02D8
:100B7000154335433D4388F8005021784FF000027B
:100B800009070CD5207D98F8003023F00C0388F875
:100B9000003098F80030034388F80030104689F898
:100BA0001820CAE758000020153C0240143C0240BF
:100BB0000348016841F000410160002070470000D7
:100BC000103C02400448017841F0020101704CF2EF
:100BD0005030FFF72FBE0000143C0240064800686A
:100BE000C00707D0044805490C380160044901607A
:100BF0000020704701207047143C02403B2A19082E
:100C00007F6E5D4C2DE9F0471B4E05461446307E45
:100C10001F468946012808D0012030764CF2503812
:100C20004046FFF707FE18B114E00220BDE8F08748
:100C30009DB1012D16D0022D19D022463B464846C3
:100C4000FFF782FD4046FFF7F5FD0C490A6822F0E8
:100C500001020A6000213176E8E7E1B24846FFF779
:100C600063FDEFE7A1B24846FFF782FDEAE72146C0
:100C70004846FFF78FFDE5E758000020103C024092
:100C8000074900200A68002A09DA054A054B0C3A90
:100C90001360054B13600968002900DA01207047D2
:100CA000103C024023016745AB89EFCD2DE9F84F99
:100CB000DFF890B100224FF001084FF0030A4FF027
:100CC0000F090BF1040E00BF0B6808FA02F4234071
:100CD000A3426ED14D68022D01D0122D0ED1D50840
:100CE00000EB850CDCF820505607F70E09FA07F6E2
:100CF000B5430E69BE402E43CCF82060066855000F
:100D00000F790AFA05FC07F0030726EA0C06AF4044
:100D1000374307604E68012E05D0022E03D0112EF6
:100D200001D0122E0ED18768CE6827EA0C07AE409C
:100D30003E4386604668A6430C79C4F30014944091
:100D400034434460C4688E6824EA0C04AE402643F1
:100D5000C6604C68E4006FD53B4C256845F480457F
:100D60002560246822F0030504F480440094374C85
:100D70002E19D6F8084895072F0F09FA07F5AC4346
:100D8000334DA84201D100252EE0324DA84201D1B9
:100D9000012529E0304DA84201D1022524E02F4D44
:100DA000A84201D103251FE02D4DA84202D1042500
:100DB0001AE041E02B4DA84201D1052514E02A4D4F
:100DC000A84201D106250FE0284DA84201D10725F0
:100DD0000AE0274DA84201D1082505E0254DA8428B
:100DE00001D1092500E00A25BD402543C6F8085871
:100DF000DBF800405D464E689C43F60300D51C437B
:100E00002C60DEF8004075464E689C43B60300D562
:100E10001C432C600B4D08352C684E689C43F60231
:100E200000D51C432C60074D0C352C684E689C4344
:100E3000B60200D51C432C60521C102AFFF444AFAC
:100E4000BDE8F88F003C01404438024000300140CA
:100E5000000002400004024000080240000C024072
:100E6000001002400014024000180240001C024022
:100E700000200240002402400069084000D0012008
:100E8000704742694A40426170470AB181617047C8
:100E90000904FBE7014800687047000008000020D3
:100EA00002480168491C01607047000008000020EA
:100EB0000B4810B5016841F400710160016841F40C
:100EC00080610160016841F480710160032000F0DD
:100ED00069F8002000F006F800F018F8002010BDB6
:100EE000003C024010B5044607484FF47A71006890
:100EF000B0FBF1F000F040FE00222146501E00F051
:100F000031F8002010BD00002800002010B5072097
:100F100000F048F8002211466FF00B0000F022F8B4
:100F2000002211466FF00A0000F01CF80022114662
:100F30006FF0090000F016F800221146501F00F073
:100F400011F800221146101F00F00CF80022114683
:100F5000901E00F007F80022BDE810401146501E18
:100F6000AFF30080F0B40E4B1B680C46C3F30223B2
:100F7000C3F10705042D00D90425191D072901D245
:100F8000002300E0DB1E012606FA05F1491E214080
:100F900099409E40761E16403143F0BC01F0C0B926
:100FA0000CED00E0064900F0070208684FF6FF0369
:100FB000184040EA0220034A1043086070470000CE
:100FC0000CED00E00000FA052DE9F8431748016830
:100FD00041F0805101600068154F00F080500126FB
:100FE00000903E64FFF756FF05464FF47A78114CA7
:100FF00005E000BFFFF74EFF401B40450DD860687D
:10100000C003F7D57E64FFF745FF0546464607E077
:10101000FFF740FF401BB04202D90320BDE8F88330
:1010200060688003F4D50020F8E7000040380240F3
:1010300000000E42007000402DE9F0470E4605000A
:1010400065D0DFF81481D8F80000F7B200F00F0087
:10105000B04207D288F80070D8F8000000F00F0006
:10106000B04254D128683D4C810712D5400703D5C2
:10107000206840F4E05020602878000703D52068FD
:1010800040F4604020602068A96820F0F000084328
:1010900020602878C0072DD03049686808390128B9
:1010A00012D0022813D0032811D00968890700291B
:1010B0002DDA216821F0030101432160FFF7EAFEE8
:1010C000814641F2883A0EE009688903EFE7096832
:1010D0008901ECE7FFF7DEFEA0EB0901514502D9DB
:1010E0000320BDE8F0872068696800F00C00B0EBD1
:1010F000810FEFD1D8F80010404601F00F01B14246
:1011000007D90770006800F00F00B04201D001203D
:10111000E7E72878400705D52068E96820F4E05023
:10112000084320602878000706D52068296920F444
:10113000604040EAC100206000F03CF82168084AA5
:10114000C1F30311515CC840064908600020FFF755
:10115000C9FE0020C5E70000003C024008380240FC
:10116000784200082800002001480068704700000D
:10117000280000200448054900680968044AC1F3B2
:101180008221515CC8407047280000200838024086
:10119000884200080448054900680968044AC1F308
:1011A0004231515CC8407047280000200838024096
:1011B00088420008154810B5006810F00C02144869
:1011C00013D04110042A0FD0082A0ED10F4C241F2F
:1011D0002268236802F03F025B0207D52068C0F353
:1011E0008810A0FB010106E0084610BD2168C1F38C
:1011F0008811A1FB00010023FEF7F4FF2168C1F371
:101200000141491C4900B0FBF1F010BD0838024013
:101210000024F4002DE9F84F050071D0DFF8D092DA
:101220002878A9F1040BC007ABF104044AD0D9F81F
:1012300000104846C1F38101012908D00068C0F3BD
:10124000810002280AD1DBF80000400206D52068A0
:10125000800337D568680028DFD033E06868B0F5D0
:10126000803F10D0B0F5A02F206810D020F480303F
:101270002060206820F4802020606868A8B1FFF713
:1012800009FE06460DE0206840F48030F4E740F4A3
:1012900080202060F7E700BFFFF7FCFD801B64287B
:1012A00073D820688003F7D50CE0FFF7F3FD0646FE
:1012B00005E000BFFFF7EEFD801B6428F0D8206832
:1012C0008003F7D428788B4F80074FF0010A4FF046
:1012D00000083DD5D9F80010484611F00C0F08D091
:1012E0000068C0F3810002280BD1DBF80000400247
:1012F00007D42068800715D5E868012800D111E0DF
:10130000F3E0E868B0B1C7F800A0FFF7C3FD0646F8
:1013100005E000BFFFF7BEFD801B022835D820681E
:101320008007F7D52068296920F0F80040EAC1005D
:1013300020600DE0C7F80080FFF7ACFD064604E032
:10134000FFF7A8FD801B02281FD820688007F7D46C
:101350002878000724D56848696981B1C0F800A0E1
:10136000FFF798FD064604E0FFF794FD801B022876
:101370000BD85F486C3000688007F5D510E0C0F8E6
:101380000080FFF787FD064605E074E0FFF782FD69
:10139000801B02286FD856486C3000688007F5D44F
:1013A0002878400753D552483830016841F08051C1
:1013B0000160006800F0805000905048016841F4DE
:1013C00080710160FFF766FD064604E0FFF762FDED
:1013D000801B02284FD849480068C005F6D5444E06
:1013E000A868683601280FD00528306810D020F092
:1013F00001003060306820F004003060A868B8B1A7
:10140000FFF748FD00900FE0306840F00100F4E77E
:1014100040F004003060F7E7FFF73CFD0099411A07
:1014200041F28830814258D830688007F4D50EE008
:10143000FFF730FD009007E0FFF72CFD0099411AFF
:1014400041F28830814248D830688007F4D4A869D6
:1014500090B3D9F80010C1F38101022945D00228C8
:10146000C7F8608003D0FFF715FD054638E0FFF7A9
:1014700011FD064605E030E0FFF70CFD801B022859
:101480002BD820688001F7D4D5E907010843A96A61
:101490001B4A490802EB01416A6A41EA821108438A
:1014A00095F82C1040EA0161CBF80010C7F860A055
:1014B000FFF7F0FC054606E015E000BFFFF7EAFC89
:1014C000401B022809D820688001F7D50BE000BF37
:1014D000FFF7E0FC401B022802D90320BDE8F88F8B
:1014E00020688001F4D40020F8E70120F6E700002E
:1014F0000838024000004742800E4742007000401A
:101500000000FFFFF0B5426E120E93090B70C2F39C
:1015100083034B7002F003028A70426E120CCA7091
:10152000B0F86420120A0A7190F864204A71826E41
:101530004FF6FF73120E03EA0212CA80826ECB8846
:10154000C2F3074243EA1213CB8002F00F020A7281
:10155000B0F86820C2F30722D3094B72C2F380139C
:101560008B72C2F34013CB72C2F300130B730026CD
:101570004E73446C4FF4007701236CB1012C43D0BF
:10158000026840F2FF519163816B41F080518163A9
:1015900080F834300120F0BD9207120D0A6190F8F6
:1015A00068200C6944EA82020A61C26E0C69120E5C
:1015B00044EA92140C61C2F3C2040C7502F00702F3
:1015C0004A75C26EC2F3074254098C75C2F3820495
:1015D000CC759207520F0A76B0F86C20C2F307243C
:1015E0000A7E42EAD4120A760A69521C42650D7ECE
:1015F000AD1CAA4042650D7A03FA05F585656D0AB2
:101600006A43C0E917271CE090F868209206920A06
:101610000A61C26E0C69120E44EA02220A61C26EAD
:101620000C69C2F3074214430C61B0F86C20C2F39A
:1016300007240A69521C4FEA82224265C0E91672E9
:101640000766C4F3801201F8192F4FEA84624FEA4B
:1016500052624A7010F86C2F4C7844EAD2144C70E5
:1016600002F07F028A7042684FEA12624FEAD21497
:10167000CC70C2F341140C71C2F382044C714FEA76
:1016800082724FEA12728A7142688C79C2F3074201
:1016900044EA92148C71C2F34014CC710E7202F0C1
:1016A00001024A728288C2F307224FEAD2148C7276
:1016B000C2F38014CC72C2F340140C73C2F3001452
:1016C0004C73C2F381048C7302F00302CA73007975
:1016D0004FEA500008744B744FF00000F0BD426CAC
:1016E0000A60826C4A60C26C8A60026DCA60426D98
:1016F0000A61826D4A61C26D8A61006EC861002014
:10170000704770B50446B0F8500000250104206809
:1017100000F081FF18B1A16B0143A16304E0002137
:10172000206800F024FE0546C5F3432070BD70B567
:10173000040004D094F83400002510B105E0012025
:1017400070BD2577204600F037F8032084F8340078
:10175000204600F007F8A5632563012084F83400D3
:10176000002070BDFEB50025044676200095CDE929
:1017700001502B462A462946206800F0FEFD0D4EFA
:1017800046F8A05F206800F00AFE012535600220BF
:10179000FFF736F9204601F056F920B9204601F04E
:1017A000DFF8002805D084F83450A16B0143A16311
:1017B0000120FEBD00802542F0B50068104987B0C9
:1017C00088421BD10F48016841F400610160006844
:1017D000022400F4006005904FF488500125032690
:1017E0000C278DE8F10069460748FFF75FFA0420EF
:1017F0008DE8F10069460548FFF758FA07B0F0BDDB
:10180000002C01404438024000080240000C024015
:101810002DE9F04F87B09A4617460E460446DDF88C
:1018200040B0FFF737FB00903EB194F83400012838
:1018300007D0A06B40F000500FE0A06B40F00060BC
:101840000BE04FF00008C4F83880E06D07EB0A01A8
:10185000814204D9A06B40F00070A0637DE00320BA
:1018600084F834002068C0F82C80606C012800D017
:101870007F024FF40071206800F0E0FD40F2FF5954
:10188000012530B12268C2F83890A16B0143A163F1
:1018900061E04FF0FF3001904FEA4A200290902023
:1018A00003900220CDE90408069501A9206800F004
:1018B00048FDBAF1010F06D902202063394620689D
:1018C00000F032FE04E025633946206800F045FE52
:1018D0000028D7D140F22A382068416B11EA080F5E
:1018E00022D1406B000409D50027206800F05BFD81
:1018F00046F827007F1C082FF7D32036BBF1000FD6
:1019000005D0FFF7C7FA0099411A5945E4D3216879
:10191000C1F83890A06B40F00040A06384F83450C8
:10192000032007B0BDE8F08F416BC90509D5BAF1B6
:10193000010F06D9616C032903D000F09DFE002839
:10194000A0D12068416B090709D5C0F83890A06B79
:1019500040F0080028E084F834500120E1E7416BB2
:10196000890705D5C0F83890A06B40F002001BE055
:10197000416B89061AD5C0F83890A06B40F0200062
:1019800012E000BF00F00FFD01C6BBF1000F05D053
:10199000FFF780FA0099411A594507D32168C1F829
:1019A0003890A06B40F00040A063D4E72068416B02
:1019B0008902E7D42168C1F8389084F834500020B7
:1019C000AFE700002DE9F04F87B09A4616460D4666
:1019D0000446FFF75FFA06903DB194F83400012801
:1019E00007D0A06B40F000500DE0A06B40F000600D
:1019F00009E00020A063E26D06EB0A01914204D9E0
:101A0000A06B40F00070A06390E0032184F83410D4
:101A100021688146C862606C012800D076024FF4CC
:101A20000071206800F00AFD40F2FF58012730B134
:101A30002268C2F83880A16B0143A16317E0BAF1B4
:101A4000010F06D9202020633146206800F02EFEC9
:101A500005E0102020633146206800F040FE0600BB
:101A600008D02168C1F83880A06B3043A06384F8A7
:101A700034705BE04FF0FF3000904FEA4A20019055
:101A8000902002904846CDE90407CDF80C90B94665
:101A90006946206800F055FC40F21A3B22E0406B9A
:101AA00040040AD55FF0000705EB8701206800F0CD
:101AB0008DFC7F1C082FF7D32035109830B1FFF72D
:101AC000E9F90699411A109881420BD32168C1F8AF
:101AD0003880A06B3043A06384F83490032007B0B3
:101AE000BDE8F08F2068416B11EA0B0FD7D0416B36
:101AF000C9050FD5BAF1010F0CD9616C032909D0C2
:101B000000F0BAFD30B12268C2F83880A16B014301
:101B1000A16309E02068416B090709D5C0F8388046
:101B2000A06B40F0080014E084F834900120D6E760
:101B3000416B890705D5C0F83880A06B40F00200E2
:101B400007E0416BC0F83880C90604D5A06B40F0AF
:101B50001000A063E8E784F834900020BFE74FF05E
:101B6000E0210428086903D020F0040008617047D0
:101B700040F00400FAE7704710B5401EB0F1807FD6
:101B800001D3012010BD4FF0E02460610F216017E8
:101B900000F0C6FB0020A06107202061002010BDDE
:101BA00010B5FFF7E8FF10BD70B5040004D094F83D
:101BB0003900002510B106E0012070BD84F83850CE
:101BC000204600F023F8242084F839002068C168FA
:101BD00021F40051C160204601F070F820680169CD
:101BE00021F4904101612068416921F02A0141619D
:101BF0002068C16841F40051C160E563202084F889
:101C0000390084F83A00002070BD000000B500687B
:101C10000E4987B0884217D10D48016841F0100184
:101C200001600068694600F0100005904FF4C06044
:101C300000900220019001200290032003900720D1
:101C400004900448FFF732F807B000BD00100140CF
:101C500044380240000002402DE9F843044690F861
:101C60003A00994616460D4620284FD195B18EB1BF
:101C700094F83800012849D0012084F83800002762
:101C8000E763222084F83A00FFF704F9A68580462E
:101C9000E68531E00120BDE8F883E08D401EE08557
:101CA000A0684346B0F5805F4FF000024FF020017E
:101CB0002046CDF8009004D001F056F998B10320E9
:101CC000E9E701F051F90028F9D1206900282068DE
:101CD000406803D0C1B225F8011B0DE0C0F3080134
:101CE00025F8021B08E0206900282068406801D020
:101CF00000F07F0005F8010BE08D0028CDD12020F9
:101D000084F83A0084F838700020C4E70220C2E763
:101D10002DE9F843044690F839001F4616460D4653
:101D2000202850D1A5B19EB194F8380001284AD09E
:101D3000012084F838004FF00008C4F83C802120CE
:101D400084F83900FFF7A6F8A6848146E68426E0E9
:101D50000120BDE8F883E08C401EE084A0684B467B
:101D6000B0F5805F4FF000024FF0800120460097F1
:101D700003D001F0F9F8E8B90DE001F0F5F8C8B9C1
:101D800028882168C0F308004860206908B16D1CEC
:101D900005E0AD1C03E0216815F8010B4860E08CFC
:101DA0000028D8D14B46002240212046009701F060
:101DB000DBF808B10320CCE7202084F8390084F850
:101DC00038800020C5E70220C3E7000010B50449B1
:101DD0000448FEF725FB0249491E087010BD0000AB
:101DE0001E000020644200082DE9F041224886B020
:101DF0000024016841F001010160016801F0010166
:101E00000591016841F004010160016801F00401DD
:101E10000591016841F008010160016801F00801C5
:101E20000591016841F0400101600068DFF84C80D5
:101E300000F040004FF4C046059000223146404675
:101E4000FFF723F80E4F002201213846FFF71DF857
:101E50000125CDE900540294694638460394FEF703
:101E600025FF0096CDE90154694640460394FEF7EC
:101E70001DFF06B0BDE8F081303802400018024076
:101E800000000240814C4FF0FF3581A1904801F0E5
:101E90009DF88F48FEF7E9F98D4982B21E23A1F122
:101EA0004000FFF735FF64218948FEF7D3F989A187
:101EB000874801F08BF88648FEF7D7F9844982B24B
:101EC0001E23A1F14000FFF723FF64218048FEF7A5
:101ED000C1F990A17E4801F079F87D48FEF7C5F977
:101EE0007B4982B21E23A1F14000FFF711FF64215C
:101EF0007748FEF7AFF9FEF725FB60606068800762
:101F000001D594A100E0A3A1714801F05FF87048E9
:101F1000FEF7ABF96E4982B23223A1F14000FFF720
:101F2000F7FE64216A48FEF795F9584968482B4640
:101F30000122491C4038FFF78FFE607830281FD0FF
:101F4000312854D03228A0D1A2A1614801F03EF836
:101F50005F48FEF78AF95E4982B23223A1F1400060
:101F6000FFF7D6FE64215A48FEF774F9606800282E
:101F700070D00020FEF728FB002853D09EA124E05B
:101F80000122A949A94801F025FB08B1A8A11CE03C
:101F9000ADA14F4801F01AF84D48FEF766F94C49DB
:101FA00082B23223A1F14000FFF7B2FE642148481B
:101FB000FEF750F9FEF7D6F908B1A9A105E04FF4F4
:101FC0000051AE48FEF75DFFADA1414800F0FEFFB5
:101FD0003F48FEF74AF93E4982B23223A1F1400060
:101FE000FFF796FE64213A48FEF734F94DE7A9A1C0
:101FF000374800F0EBFF3648FEF737F9344982B234
:102000003223A1F14000FFF783FE64213048FEF740
:1020100021F9A6494868E060A060096881F3088852
:10202000804732E7A2A12A4800F0D0FF2848FEF7F7
:102030001CF9274982B23223A1F14000FFF768FE64
:1020400064212348FEF706F9FEF7BCFDFEF718FEF3
:102050001BE7FFE70120FEF7B7FA08B19DA1B4E73F
:10206000A7A11B4800F0B2FF1948FEF7FEF8184977
:1020700082B23223A1F14000FFF74AFE64211448E6
:10208000FEF7E8F8FEF79EFDFFE600000C000020DA
:102090000D0A3D3D3D3D3D3D3D3D3D3D3D3D3D3DD3
:1020A0003D3D3D3D3D204D61696E204D656E752085
:1020B0003D3D3D3D3D3D3D3D3D3D3D3D3D3D3D3D50
:1020C0003D3D3D3D3D3D3D3D3D3D3D3D0D0A0A0013
:1020D0003C0100202020446F776E6C6F61642069A2
:1020E0006D61676520746F2074686520696E746522
:1020F000726E616C20466C617368202D2D2D2D2D24
:102100002D2D2D2D2D2D2D2D2D2D2D2D20300D0A4C
:102110000A000000202045786563757465207468A6
:1021200065206C6F61646564206170706C696361C7
:1021300074696F6E202D2D2D2D2D2D2D2D2D2D2DD6
:102140002D2D2D2D2D2D2D2D2D2D2D2D20310D0A0B
:102150000A000000202044697361626C6520746885
:10216000652077726974652070726F746563746935
:102170006F6E202D2D2D2D2D2D2D2D2D2D2D2D2D19
:102180002D2D2D2D2D2D2D2D2D2D2D2D20320D0ACA
:102190000A0000002020456E61626C65207468654D
:1021A0002077726974652070726F74656374696FEB
:1021B0006E202D2D2D2D2D2D2D2D2D2D2D2D2D2D1B
:1021C0002D2D2D2D2D2D2D2D2D2D2D20320D0A0AAD
:1021D0000000000020456E61626C652F44697361E8
:1021E000626C6520466C6173682050726F74656321
:1021F00074696F6E0D0A0A00204572726F723A2080
:10220000466C61736820777269746520756E2D70F5
:10221000726F74656374696F6E206661696C656462
:102220002E2E2E0D0A0A000056420008D003002070
:1022300020204F70656E2066696C65206572726F34
:1022400072200D0A0A0000002020446F776E6C6F28
:102250006164206F6E676F696E670D0A0A00000087
:1022600020466C61736820646F776E6C6F616420C8
:102270006572726F720D0A0A0000000000180240B9
:1022800020446F776E6C6F616420646F6E650D0A19
:102290000A00000020457865637574696E672050F8
:1022A000726F6772616D0D0A0A00000000800008FD
:1022B0002057726974652050726F74656374696F1A
:1022C0006E2064697361626C65642E2E2E0D0A0A9D
:1022D00000000000204572726F723A20466C6173F4
:1022E000682077726974652070726F7465637469B1
:1022F0006F6E206661696C65642E2E2E0D0A0A00D1
:102300002057726974652050726F74656374696FC9
:102310006E20656E61626C65642E2E2E0D0A0A00B9
:102320000907090E002806DA00F00F0000F1E0208E
:1023300080F8141D704700F1E02080F80014704709
:1023400070470A6842624A688262D1E902231A43EE
:10235000D1E904310B43C16A1A4321F0F70111435B
:10236000C16200207047006800F00300704708B5A4
:10237000084414300090006808BD70B50DF1100CD1
:1023800011439CE8700023431943294342683143B9
:1023900047F6FF639A430A434260002070BD032161
:1023A000016000207047D0F8800070470A688260A2
:1023B000D1E901231A43D1E903310B43C1681A4320
:1023C0006FF30B011143C160002070470968C0F82A
:1023D00080100020704710B586B004463720CDE944
:1023E000001040200290002003904FF48060049081
:1023F00069462046FFF7DAFF41F28832372120464E
:1024000000F086F906B010BD10B504460A4886B043
:1024100001432920CDE900104020029000200390C4
:102420004FF48060049069462046FFF7BFFF2046C6
:1024300000F024FA06B010BD0000108010B586B080
:1024400004461020CDE900104020029000200390A7
:102450004FF48060049069462046FFF7A7FF41F2E1
:1024600088321021204600F053F906B010BD00005C
:1024700030B585B000240546009401944FF4806087
:102480000294CDE9034069462846FFF78FFF0B48C9
:102490004FF4FA510068B0FBF1F041F28831484343
:1024A000401E03D24FF0004005B030BD696B0906F5
:1024B000F6D540F2FF50A8632046F5E7280000203B
:1024C00070B585B004464FF4D570009008204026C2
:1024D000CDE901060025C001CDE90350694620463B
:1024E000FFF764FF0F484FF4FA510068B0FBF1F0BA
:1024F00041F288314843401E02D24FF000450DE0C2
:10250000616B11F0450FF6D0606B400702D5A663F2
:10251000042503E0606B400600D5A66305B028469D
:1025200070BD00002800002010B586B004461220BF
:10253000CDE9001040200290002003904FF480600D
:10254000049069462046FFF731FF41F2883212219C
:10255000204600F0DDF806B010BD10B586B0044688
:102560001120CDE9001040200290002003904FF48C
:102570008060049069462046FFF718FF41F28832D8
:102580001121204600F0C4F806B010BD10B586B089
:1025900004460720CDE9002040200290002003904F
:1025A0004FF48060049069462046FFF7FFFE41F239
:1025B00088320721204600F0ABF806B010BD10B5F8
:1025C00086B0044600210220CDE90010C020CDE9EC
:1025D00002014FF48060049069462046FFF7E6FE52
:1025E000204600F023F906B010BD10B586B00446B1
:1025F0000920CDE90010C0200290002003904FF484
:102600008060049069462046FFF7D0FE204600F027
:102610000DF906B010BD10B586B004460D20CDE909
:10262000001040200290002003904FF4806004903E
:1026300069462046FFF7BAFE41F288320D21204656
:1026400000F066F806B010BD30B585B00C46054602
:1026500000210320CDE900104020CDE90201000156
:10266000049069462846FFF7A1FE2246032128462A
:1026700000F024F905B030BD10B586B00446002145
:102680000C20CDE900104020CDE9020100010490AA
:1026900069462046FFF78AFE034A0C21204600F0D7
:1026A00037F806B010BD000000E1F50510B586B0A2
:1026B00004461920CDE9001040200290002003902C
:1026C0004FF48060049069462046FFF76FFE41F2A8
:1026D00088321921204600F01BF806B010BD10B555
:1026E00086B004461820CDE900104020029000205A
:1026F00003904FF48060049069462046FFF756FE31
:1027000041F288321821204600F002F806B010BDD0
:10271000444B10B51B684FF4FA54B3FBF4F3534326
:102720005B1E02D24FF0004010BD426B12F0450F0D
:10273000F6D0426B520703D504218163084610BDD1
:10274000426BD20702D00121816303E00269D2B259
:102750008A4201D0012010BD40F2FF518163002167
:10276000FFF705FE3049084201D1002010BD0028C6
:1027700002DA4FF0007010BD410001D5402010BDBD
:10278000810001D5802010BDC10002D54FF48070BA
:1027900010BD010102D54FF4007010BD410102D5FA
:1027A0004FF4806010BDC10102D54FF4006010BD30
:1027B000010202D54FF4805010BD410202D54FF402
:1027C000005010BD810202D54FF4804010BDC102FF
:1027D00002D54FF4004010BD410302D54FF4003044
:1027E00010BD810302D54FF4802010BDC10302D576
:1027F0004FF4002010BD010402D54FF4801010BD2D
:10280000410402D54FF4001010BD810402D54FF4ED
:10281000800010BD000702D54FF4000010BD4FF43A
:10282000803010BD2800002008E0FFFD12494FF461
:10283000FA520968B1FBF2F141F288325143491E64
:1028400002D24FF000407047426B12F0450FF6D0B5
:10285000416B490703D50421816308467047416BEA
:10286000C90703D0012181630846704740F2FF5138
:102870008163002070470000280000200E494FF4BB
:10288000FA520968B1FBF2F141F288325143491E14
:1028900002D24FF000407047426B12F0450FF6D065
:1028A000416B490703D5042181630846704740F214
:1028B000FF51816300207047280000201F4B10B596
:1028C0001B684FF4FA54B3FBF4F341F288346343CA
:1028D0005B1E02D24FF0004010BD446B14F0450F58
:1028E000F6D0436B5B0703D504218163084610BD16
:1028F000436BDB0702D00121816303E00369DBB294
:102900008B4201D0012010BD40F2FF5181630021B4
:10291000FFF72DFD10F4604F04D0410406D54FF4AD
:10292000005010BD000C1080002010BD000402D526
:102930004FF4805010BD4FF4803010BD28000020AF
:1029400010B5064C01202070FDF7CEFC18B9207898
:1029500020F001002070207810BD00001C00002035
:1029600010B590B004460120ADF838002068FFF79C
:10297000FAFC002864D0606C032842D02068FFF77E
:102980001EFE00285AD100212068FFF7F0FC606786
:1029900004212068FFF7EBFCA06708212068FFF7FF
:1029A000E6FCE0670C212068FFF7E1FCC4F880003A
:1029B000606C032825D00EA92068FFF745FE00288B
:1029C0003CD1606C03281CD0BDF8380020650104A0
:1029D0002068FFF70AFE002830D100212068FFF7A9
:1029E000C6FC606604212068FFF7C1FCA0660821D0
:1029F0002068FFF7BCFCE0660C212068FFF7B7FCFD
:102A0000206704212068FFF7B2FC000DE06403A9F1
:102A10002046FEF777FDB4F850000023020420683A
:102A2000FFF7B4FD002809D104F1100007C88DE8B4
:102A3000070094E80F00FFF7A0FC002010B010BDC5
:102A40004FF08060FAE72DE9F84300250446009531
:102A50000068FFF70DFD00281AD12068FFF730FD50
:102A60004FF080784FF6FF76D8B14FF08057A564CD
:102A70000098411C0091B0421AD000212068FFF755
:102A8000AAFC20B900212068FFF7BEFC10B138462F
:102A9000BDE8F88300212068FFF769FCC00FE7D08C
:102AA0001FE00127A7640098411C0091B04201D1AA
:102AB0004046EDE700212068FFF78DFC0028E7D1B4
:102AC0004FF080412068FFF79FFC0028E0D10021F3
:102AD0002068FFF74CFCC10FE5D0400001D56764CA
:102AE00000E065640020D3E770B5084C054601207E
:102AF0002070FDF705FC18B9207820F00100207047
:102B00002846FFF71DFF207870BD00001C00002044
:102B100010B5124888B014460078C00702D00320D0
:102B200008B010BDB9B1012905D0022908D0032988
:102B30000CD00420F4E76846FDF7D0FB069809E0C6
:102B40006846FDF7CBFB0798208004E06846FDF758
:102B5000C5FB079820600020E2E700001C00002071
:102B600070B51D46164608460124A31E2A46314666
:102B7000FDF7D8FB28B900BFFDF7B6FB0028FBD155
:102B80000024204670BDFFF7DBBE000070B51D4677
:102B9000164608460124A31E2A463146FDF7D2FBFD
:102BA00028B900BFFDF7A0FB0028FBD10024204678
:102BB00070BD704710B5FEF773F9BDE81040FEF721
:102BC000EFBF000030B5264893B00025016841F002
:102BD00080510160006800F0805011902148016828
:102BE00041F4404101600068022400F4404011902B
:102BF000012003901020049008AA00940820B4211A
:102C0000CDE9064582E813000B906846FEF702FB0B
:102C100000B1FEE7FEF7D8F900B1FEE70CA90F20DE
:102C200081E831004FF4A0500F904FF48050109085
:102C300005210CA8FEF700FA00B1FEE7FEF794FAB2
:102C40004FF47A71B0FBF1F0FEF796FF0420FEF727
:102C500086FF00221146501EFEF784F913B030BDE6
:102C600040380240007000401048016841F4700193
:102C700001600F48016841F0010101600C4A002128
:102C80000832116002680B4B1A400260031D0A4AA9
:102C90001A60026822F48022026005480C3001604C
:102CA00002495806803908607047000088ED00E04E
:102CB00000380240FFFFF6FE103000242DE9F041FD
:102CC00004460068016921F44052E1681143016142
:102CD0002168C86849F20C6290432369A268E569DB
:102CE0001A4363692B431A430243CA602168486947
:102CF00020F44072A06910434861E1696425B1F590
:102D0000004F9748974A21684FF032083FD09142D0
:102D100001D081427CD1FEF73DFA00EBC00101EB0E
:102D2000001061688900B0FBF1F6FEF733FA00EBA2
:102D3000C00101EB001061688900B0FBF1F0B0FB4D
:102D4000F5F06FF01801484306EB800108EB011025
:102D5000B0FBF5F000F0F006FEF71CFA00EBC00146
:102D600001EB001061688900B0FBF1F0B0FBF5F0F9
:102D700006EB0016FEF70EFA00EBC00101EB0010A7
:102D800061688900B0FBF1F7FEF704FAD2E09142E6
:102D900001D081423DD1FEF7FDF900EBC00101EB0E
:102DA000001061684900B0FBF1F0B0FBF5F00601DE
:102DB000FEF7F0F900EBC00101EB0010616849007B
:102DC000B0FBF1F7FEF7E6F900EBC00101EB0010F4
:102DD00061684900B0FBF1F0B0FBF5F06FF018014D
:102DE000484307EB800108EBC100B0FBF5F000F0B1
:102DF000F80006EB4006FEF7CDF900EBC00101EB51
:102E0000001061684900B0FBF1F7FEF7C3F93CE040
:102E100055E0FEF7AFF900EBC00101EB001061686F
:102E20004900B0FBF1F0B0FBF5F00601FEF7A2F9A6
:102E300000EBC00101EB001061684900B0FBF1F745
:102E4000FEF798F900EBC00101EB00106168490042
:102E5000B0FBF1F0B0FBF5F06FF01801484307EB61
:102E6000800108EBC100B0FBF5F000F0F80006EBC4
:102E70004006FEF77FF900EBC00101EB001061682E
:102E80004900B0FBF1F7FEF775F900EBC00101EB6B
:102E9000001061684900B0FBF1F0B0FBF5F06FF095
:102EA0001801484307EB800108EBC100B0FBF5F0C7
:102EB00000F00700216830448860BDE8F081FEF72B
:102EC00059F900EBC00101EB001061688900B0FB0B
:102ED000F1F6FEF74FF900EBC00101EB001061685D
:102EE0008900B0FBF1F0B0FBF5F06FF0180148433A
:102EF00006EB800108EB0110B0FBF5F000F0F006E6
:102F0000FEF738F900EBC00101EB001061688900A1
:102F1000B0FBF1F0B0FBF5F006EB0016FEF72AF976
:102F200000EBC00101EB001061688900B0FBF1F714
:102F3000FEF720F900EBC00101EB00106168890089
:102F4000B0FBF1F0B0FBF5F06FF01801484307EB70
:102F5000800108EB0110B0FBF5F000F00F00A9E7CD
:102F600000140140001001402DE9F0419846174639
:102F70000E460446069D1DE0681C1BD02DB1FDF7D2
:102F800089FFA0EB0800A84214D92068C16821F489
:102F9000D071C1602068416921F0010141612020A8
:102FA00084F8390084F83A00002084F838000320BF
:102FB000BDE8F0812068006836EA000004D00020F7
:102FC000B842D9D00020F3E70120F9E70FB4084652
:102FD00010B5064A02A900F01AF8044602A900201A
:102FE00000F026F8204610BC5DF814FB31300008D4
:102FF00002E008C8121F08C1002AFAD170477047C2
:10300000002001E001C1121F002AFBD170472DE909
:10301000F04116460F460446002503E03946B04706
:10302000641C6D1C20780028F8D12846BDE8F0818A
:103030000A68531C0B6010707047000010B50446FE
:103040000020E070401EE062204600F08CFF08B1D6
:10305000042010BD04F22E2000F0FCFEA0F52A4151
:10306000553901D0032010BD94F83000E92805D06F
:10307000EB2814D194F83200902810D104F16600A6
:1030800000F0DDFE0749B1EB002F06D004F182000D
:1030900000F0D5FE0449884201D1002010BD022075
:1030A00010BD00000046415446415433F0B50022A3
:1030B000144D134605EB021426685EB10768BE4244
:1030C00009D166688768BE4205D1A4684669B442E2
:1030D00004D000E00123521C022AEBD3022A01D0C3
:1030E00069B904E04BB9022907D01220F0BD05EB05
:1030F00002108089B0F5807F01D00020F0BD102043
:10310000F0BD00003800002030B50021054B0C4612
:1031100003EB01121568854200D11460491C022995
:10312000F6D330BD380000200268490AC06A5289CF
:10313000B1FBF2F1001D04C81AB1914203D3891A00
:10314000F8E7002070470068084470474269891E0C
:10315000921E8A4201D800207047826A408901FB92
:10316000002070472DE9F04105680F00804606D029
:1031700000F062FD022809D20120BDE8F081EE686E
:1031800016B16869B04207D8012605E0411CF4D0A9
:1031900069698142F1D83E4634466869641CA042A0
:1031A00002D80224022E0AD32146404600F044FDF4
:1031B00038B10128E1D0411CDFD0B442EDD100206C
:1031C000DBE74FF0FF3632462146284600F0E4FEAA
:1031D00030B957B122463946284600F0DDFE20B10D
:1031E00001280FD001242046C7E7EC60D5E904018F
:1031F000891E884201D8401E2861287940F00100CC
:103200002871F0E73446EEE72DE9F0410E46243010
:103210000D6804460B22202100F09EFE002001468E
:1032200008272A5C401C202A12D92F2A0BD05C2A9E
:1032300009D02E2A01D0B94214D30B2F22D02E2A26
:1032400020D10CE0401C2B5C2F2BFBD05C2BF9D049
:1032500028443060B1B12078E5281FD020E0082153
:103260000B27DEE7802A03D3114B1A4412F8802C77
:1032700010A300E05B1C93F800C0BCF1000F04D069
:103280009445F7D10620BDE8F081A2F16103192B26
:1032900001D8203AD2B26254491CC2E705202070FE
:1032A000202A01D8042000E00020E0720020EAE794
:1032B000BA410008222A2B2C3A3B3C3D3E3F5B5D45
:1032C0007C7F00002DE9F04104460021056800F0F4
:1032D000D8F8002826D12846E16900F044FE020013
:1032E0001FD1206A017899B1C17A01F03F01A17123
:1032F000C17A09070FD404F124010B2610F8013B11
:1033000011F8017BDB1B761E04D0002BF6D002E007
:10331000042206E02BB10021204600F005F802004F
:10332000D9D01046BDE8F0812DE9F0470546476940
:103330000468C0698946203710B1B7F5001F02D371
:103340000420BDE8F087F90560D1401CE861A96957
:103350004FF0000829B16089401E10EA572F05D0B0
:1033600054E02089B0EB571F1DD94FE0284600F0EC
:1033700063FC064601281BD9701C33D06069B0423B
:103380003ED8B9F1000F0ED02846A969FFF7EAFE32
:1033900006000BD0012E0BD0701C23D0204600F06D
:1033A000CAFEF8B906E0C5F81C80C9E70720C8E7DF
:1033B0000220C6E74FF40072002104F1300000F053
:1033C000CBFD4FF0000831462046FFF7BFFE4FF01F
:1033D0000109E0620DE000BF84F80390204600F090
:1033E000AAFE08B10120ACE7E06A08F10108401C20
:1033F000E06261894145EFD8E16AA1EB0800E06233
:1034000031462046AE61FFF7A1FEE861C7F3080030
:10341000204430306F612862002092E770B5044686
:103420000021066800F02DF80DE03046E16900F05B
:103430009AFD50B9206A0078E52809D040B10121F1
:103440002046FFF771FF0028EFD0042807D007E0DF
:103450003046E16900F087FD050003D00FE007204A
:1034600005460CE020220021206A00F075FD0B22A9
:1034700004F12401206A00F065FD0120F070284667
:1034800070BD2DE9F04107680E460546B1F5001FF5
:1034900036D2F00634D16E61AC6824B9387803288E
:1034A00005D37C6A1CB178894FEA402812E038893C
:1034B000B0EB561F24D9786A12E0284600F0BCFB16
:1034C0000446401C1AD0022C1AD37869A04217D99E
:1034D000A6EB080646452146EFD23846FFF736FEF2
:1034E000C5E9064060B100EB5620E861C6F308006C
:1034F0003844303028620020BDE8F0810120FBE72D
:103500000220F9E7084910B50B5C002253B90122EB
:103510000A540A1801EB8000127A406801681046CC
:1035200088470246104610BD2C00002030B4054DDF
:103530002C1805EB8000247A406885682046AC464C
:1035400030BC60472C000020044A111802EB8000B8
:10355000097A406842680846104700002C000020A5
:1035600030B4054D2C1805EB8000247A4068C568FE
:103570002046AC4630BC60472C0000202DE9F741C6
:1035800081B0904602980090684600F0E7FB040086
:1035900003D50B2004B0BDE8F0810D4E002756F88E
:1035A00024501DB12846FFF7AFFD2F700198002869
:1035B00000D0077046F8240002D0B8F1010F01D006
:1035C0000020E7E7002201A902A800F0D1F9E1E715
:1035D000040000202DE9F74392B005000BD002F063
:1035E0003F063246694613A800F0C2F904004FF0C6
:1035F000000804D0ECE0092015B0BDE8F083009885
:10360000049004A8139900F0DDFA04000ED19DF88F
:103610003F00000601D5062408E0700801D0012112
:1036200000E0002104A8FFF741FD044616F01C0F3E
:103630005DD04FF00109C4B1042C10D100206749BE
:1036400002E0401C022804D201EB00121268002A9A
:10365000F7D1022807D004A8FFF7E0FE044646F0A1
:1036600008065CB1B4E01224B2E09DF8160010F038
:10367000110F47D1700701D50824A9E0300747D5BD
:1036800000F039FB07460C9839460E3000F047FD34
:103690000C983946163000F042FD0C982021C1727A
:1036A0000C99009800F0B8FB074600220C9900988E
:1036B00000F021FD0C9800211C3000F030FD009935
:1036C00081F8039017B3D1F82C900022394604A852
:1036D00000F0D7FC04007BD14946009800F043FC81
:1036E00004000098A7F10107C7600DD070E0ECBBA3
:1036F0009DF81600C10601D5042469E0B10703D581
:10370000C00701D0072463E0300701D546F040062A
:103710000098C06A68620C98A862700801D0012104
:1037200000E0002104A800F037FB2861B8B30C9931
:10373000009800F071FBA8600C981C3000F07FFB33
:10374000C5F82C80E86000992960009905F13000E7
:103750004FF40072C988A9802E7585F81580C5F8C8
:10376000208000218146C5F8188000E030E000F09C
:10377000F3FBB0062ED5EE6866B3AE610098A9687B
:10378000408947020FE0284600F056FA014601281A
:1037900000D80224481C03D0F61B24B105E01BE02E
:1037A0000124F61B01E0BE42EDD8E96184B9F005C1
:1037B00010D00098FFF7CAFC70B100EB56222A62C5
:1037C0000098012349464078FFF7B0FE10B101246C
:1037D000C5F8008020460FE70224F9E738000020F2
:1037E0002DE9FE4F8846002119609946154604468A
:1037F00002A900F0C9FC002812D1607D00280FD179
:10380000207DC0070BD0E168A0690127081A4FF09E
:10381000020A04F1300B854200D9054684E00720F6
:10382000BDE8FE8FA169C80566D102984089401E97
:1038300010EA512611D129B1E06A28B12046FFF7DC
:1038400073FC05E0A06803E02046E16900F0F4F9AC
:1038500002281BD3411C4AD0E061E1690298FFF7BE
:1038600075FC98B130440190680A009025D0029907
:1038700032184889824201D9801B0090DDE900326C
:1038800048784146FFF752FE88BB03E084F815A054
:103890000220C5E7207D00060CD5216A0198081A90
:1038A0000099884206D208EB40204FF40072594636
:1038B00000F048FB009846022CE0226A0198824200
:1038C00018D0207D00060AD5029801235946407879
:1038D000FFF746FE58B9207D00F07F002075029862
:1038E000012359464078019AFFF720FE10B1677511
:1038F000012095E701982062208BC0F30800C0F5F5
:103900000076AE4200D92E4601193246404630318B
:1039100000F018FBA069B0443044A061D9F8000061
:103920008119AD1BC9F80010002D7FF47BAF00207A
:1039300076E733B58DB00D46002269460DA800F03C
:1039400017F8040010D168460D9900F03BF9040007
:103950000AD19DF82F00000601D5062404E01DB110
:103960002946684600F0C9F90FB0204630BD000076
:103970002DE9FF41002790460E460F6000F0EEF95A
:10398000050003D50B2004B0BDE8F0818A4850F84B
:1039900025409CB13460207808F0FE0620B16078A4
:1039A000FFF7D2FDC1070BD02770E8B2B8466070B0
:1039B000FFF7A8FDC10708D00320E4E70C20E2E7E9
:1039C0000EB1400704D40020DDE71EB1400701D549
:1039D0000A20D8E7002631462046FFF72FFB0228B1
:1039E00022D100254FEA0D0704EB051090F8F211E3
:1039F00000F5F77019B1083000F021FA00E000205E
:103A000047F825006D1C042DEED3002557F82560DE
:103A100036B131462046FFF711FB022801D203E000
:103A200003206D1C042DF1D3042809D002286DD287
:103A300004F13B0000F00EFAB0F5007F66D101E022
:103A40000120A0E704F1460000F004FA18B904F1DF
:103A5000540000F0F4F9A06194F84050A570012DD5
:103A600001D0022D52D1454394F83D006081E8B366
:103A7000411E08424AD104F1410000F0EBF92081D7
:103A8000000743D104F1430000F0E4F9070004D13A
:103A900004F1500000F0D3F9074604F13E0000F0B5
:103AA000D9F9010032D02389481900EB131297424B
:103AB0002CD3B81A6789B0FBF7F0B8B103274FF6DB
:103AC000F57C604500D8022740F6F57C604500D8BB
:103AD0000127801C3244A26231446061C4E907615D
:103AE000032F15D013B12944616200E00EE0022FCC
:103AF0001FD000F0010100EB400001EB500000BFBF
:103B0000A16900F2FF10B1EB502F14D20D203AE75B
:103B100004F15A0000F09EF90028F7D1208900280E
:103B2000F4D104F15C0000F08AF960626069800001
:103B3000E6E74000E4E74FF0FF302061E0608020DE
:103B40002071032F2CD104F1600000F083F90128CB
:103B500026D1711C204600F006FA08BB84F80480C8
:103B600004F22E2000F076F9A0F52A41553917D13C
:103B700004F1300000F063F91049884210D104F5D7
:103B8000057000F05CF90E49884209D104F5067011
:103B900000F055F9206104F5077000F050F9E0607D
:103BA00005492770091F0888401C0880E0802046CE
:103BB000FFF7AAFA07E70000040000205252614113
:103BC0007272416173B504460568019801E0401CBA
:103BD000019001782F29FAD05C29F8D00021A1604A
:103BE00001980078202806D2802084F82F002046F3
:103BF000FFF747FC7CBD01A92046FFF705FB002825
:103C0000F8D12046FFF75EFB94F82F1028B1042866
:103C1000F0D14907EED405207CBD4907FCD4A0793A
:103C2000C006F8D5A08AC0F30800411928463031F3
:103C300000F0F2F8A060DEE72DE9F04104680D46DF
:103C400002290BD36069A84208D920784FF0FF36CB
:103C5000012807D002282BD0032839D0012630466E
:103C6000BDE8F081206A05EB550700EB572120469F
:103C700000F079F90028F2D1C7F3080020447F1C36
:103C800090F83080206A00EB5721204600F06BF955
:103C90000028E4D1C7F30800204490F8301048EA27
:103CA0000120E90701D00609D9E7C0F30B06D6E7E2
:103CB000206A00EB1521204600F055F90028CED1EE
:103CC000E8B204EB4000303000F0C4F80646C6E726
:103CD000206A00EBD511204600F045F90028BED13E
:103CE00040F2FF1000EA85002044303000F0A7F8D1
:103CF00020F07046B3E7002070472DE9F041002323
:103D000005464B72C0690C46002825D000210A46A2
:103D10002E26286A805C521C20280AD0052800D153
:103D2000E520092A02D16718491C7E726718491CD0
:103D300078720B2AEDD360184372286AC07A207219
:103D4000286A1C3000F07BF82060286A163000F0EA
:103D500076F8E080000CA080BDE8F08110B5044644
:103D60004FF0FF302268002A13D0114600E0491CB2
:103D70000B78212B0ED33A2BF9D112F8013B303BB3
:103D80000A2B06D28A4204D1002B02D1491C1846C4
:103D9000216010BD002010BDF0B502461D4BD2F8C9
:103DA0000050002003EB00142668AE4207D166687D
:103DB0009768BE4203D1A4685669B44202D0401C41
:103DC0000228EFD3022814D1002002E0401C022870
:103DD00004D203EB00142468002CF7D102280ED083
:103DE00003EB00142560956865605269A2600022AB
:103DF000A281002903EB0011898902D019B10020AA
:103E0000F0BD491C01E04FF4807103EB0012401C2F
:103E10009181F0BD3800002070B506460D4601F1D5
:103E20001A0000F017F804463078032805D105F190
:103E3000140000F00FF844EA0044204670BDC17839
:103E4000827842EA01214278007842EA012140EA80
:103E5000012070474178007840EA01207047000057
:103E6000FDF726F8FEF7AEFEFDF7BEFF2748264910
:103E70000024C0E900148460C4600461446184616A
:103E8000FDF7A4FF21482249843001604FF4E1315D
:103E9000C0E901140C21C460C0E904418461C4611B
:103EA000FDF782FE00B1FEE701221A491A48FFF72A
:103EB00065FB1A4C207030B914481423112218A144
:103EC0008430FDF725FF4FF4FA60FCF799FD0121DE
:103ED0001848FCF7D1FF012807D017480168174A96
:103EE0001140B1F1005F07D00DE04FF4804114485C
:103EF000FCF7C7FFFDF7C6FF4168E160A1600068FD
:103F000080F308888847FEE7002C014078000020F5
:103F1000001001401E000020A00100200C00002025
:103F200053442043415244204D6F756E7465640DB7
:103F30000A00000000000240008000080000FE2F80
:103F400000180240002A05D011F8013B00F8013B9F
:103F5000521EF9D1704700005FFA81F100F8011B91
:103F6000521EFBD1704770B50446C06A0D4600264C
:103F7000A8420FD0204600F0DEF806000AD1607893
:103F800001232A4604F13001FFF7D0FA08B1751E6B
:103F90000126E562304670BD2DE9F047022617463E
:103FA0000D460446022969D36069A84266D9207883
:103FB0004FF00109012804D0022836D003285DD132
:103FC00043E0216A05EB550801EB58212046FFF735
:103FD000CAFF060052D1C8F308002044303008F16F
:103FE0000108E90704D00178FAB262F31F1100E07A
:103FF0003946017084F80390216A204601EB58216C
:10400000FFF7B1FF060039D1C8F308002044303073
:10401000E90702D0C7F3071105E00178C7F30322CF
:1040200001F0F0011143017026E0206A00EB152138
:104030002046FFF798FF060020D1E8B204EB4000CD
:10404000B9B2303000F073F816E0206A00EBD511F9
:104050002046FFF788FF060010D140F2FF1000EA6B
:104060008500204430300546FFF7E9FE67F31B006A
:104070000146284600F053F884F803903046BDE826
:10408000F0872DE9F041056813460E4607460229E0
:104090002DD36869B0422AD93BB14FF0FF3219469F
:1040A0002846FFF779FF00281FD131463846FFF731
:1040B000C3FD040018D0012C19D0601C19D00022B7
:1040C00031462846FFF768FF00280ED1D5E90410D5
:1040D000821E914205D2491C2961297941F00101D2
:1040E00029712646B042E0D80020BDE8F0810220C8
:1040F000FBE70120F9E770B50C460646154691B27C
:1041000004F11A0000F013F83078032806D1290CC6
:1041100004F11400BDE8704000F009B870BD0170F2
:10412000090A4170090A8170090AC170704701705B
:10413000090A417070472DE9F0410446C078002714
:10414000F8B1E56A04F13001607801232A46884617
:10415000FFF706FA08B1012713E00020E070206A9B
:10416000A169281A88420CD2A67808E0A069012328
:10417000054460782A464146FFF7F2F9761E022E82
:10418000F4D23846BDE8F08170B50D4604000CD07D
:10419000206850B1017841B1C188A288914204D110
:1041A0004078FFF7D1F9C00703D00020286009202C
:1041B00070BD20682860002070BD435545414141D5
:1041C000414345454549494941414592924F4F4FE9
:1041D0005555594F554F9C4F9E9F41494F55A5A549
:1041E000A6A7A8A9AAABACADAEAFB0B1B2B3B4416B
:1041F0004141B8B9BABBBCBDBEBFC0C1C2C3C4C5D2
:104200004141C8C9CACBCCCDCECFD1D14545454916
:10421000494949D9DADBDCDD49DF4FE14F4F4F4FE8
:10422000E6E8E85555555959EEEFF0F1F2F3F4F59B
:10423000F6F7F8F9FAFBFCFDFEFF010004001000A0
:10424000400000010002000001000200040008001C
:1042500010002000000062696E6172792E62696E42
:1042600000000000E92A0008872B0008612B0008E5
:104270008D2B0008112B000800000000000000003A
:1042800001020304060708090000000001020304FC
:10429000B0420008000000202C000000F02F0008B1
:1042A000DC4200082C000020D4650000003000082B
:1042B00000000000000000000000000000000000FE
:1042C00000000000000000000000000001000000ED
:0C42D00000000000008000080024F40042
:04000005080001AD41
:00000001FF
